:020000041000EA
:1000000000B5324B212058609868022188439860DF
:10001000D860186158612E4B002199600221596106
:100020000121F02299502B49196001219960352056
:1000300000F044F80222904214D00621196600F024
:1000400034F8196E01211966002018661A6600F04E
:100050002CF8196E196E196E052000F02FF8012189
:100060000842F9D1002199601B49196000215960AB
:100070001A491B48016001219960EB211966A021F2
:10008000196600F012F800219960164914480160C1
:100090000121996001BC002800D000471248134993
:1000A000086003C880F30888084703B5996A0420EC
:1000B0000142FBD001200142F8D103BD02B5186610
:1000C0001866FFF7F2FF186E186E02BD00000240BE
:1000D000000000180000070000035F00212200005C
:1000E000F4000018222000A00001001008ED00E03C
:1000F00000000000000000000000000074B24E7A12
:1001000000200420F7010010C3010010C5010010F9
:10011000C1010010C1010010C1010010C101001097
:10012000C1010010C1010010C1010010C701001081
:10013000C1010010C1010010C9010010CB01001065
:10014000CD010010CD010010CD010010CD01001037
:10015000CD010010CD010010CD010010CD01001027
:10016000CD010010CD010010CD010010CD01001017
:10017000CD010010CD010010CD010010CD01001007
:10018000CD010010CD010010CD010010CD010010F7
:10019000CD010010CD010010CD010010CD010010E7
:1001A000CD010010CD010010CD010010CD010010D7
:1001B000CD010010CD010010CD010010CD010010C7
:1001C00000BE00BE00BE00BE00BE00BE00F051F882
:1001D000103800BEF2EB8871E0020010000300103E
:1001E0003402001090A31AE700202449086006C8D2
:1001F00081F30888104722480068002835D10DA4F3
:100200000ECC002902D000F012F8F9E71D491E4A71
:10021000002000E001C19142FCD11C4988471C49E3
:1002200088471C49884700BEFDE701C901C29A42C0
:10023000FBD3704700030010C0000020F09D002099
:1002400030A00010F09D0020783F0120B84101103F
:100250000000042000000420B84101100010042018
:10026000001004200000000070470B4800F018F850
:100270000047EFF30580C0B27047000008ED00E0D2
:10028000000000D0783F012030DA032075410020C3
:100290005D2300206542002057560000000000004A
:1002A00001B40248844601BC604700BF7D5E002067
:1002B00006005250ABB36053F8AC00200600525019
:1002C000861C030208AD0020060052505422A29D55
:1002D00010AD002005005250DE65F468B8410110F1
:1002E000D4020010C8020010BC0200101CAD002097
:1002F000B002001028AD002034AD002070AD002009
:10030000F8B5C0460448054B10B5834203D0044BF2
:10031000002B00D0984710BD783F0120783F012086
:100320000000000006480749091A8B10C90FC918B8
:1003300010B5491003D0044B002B00D0984710BDD6
:10034000783F0120783F01200000000010B5074CE5
:100350002378002B09D1FFF7D5FF054B002B02D0E6
:10036000044800E000BF0123237010BD9840012025
:1003700000000000F09D0020054B10B5002B03D0BD
:100380000449054800E000BFFFF7CCFF10BDC046A0
:10039000000000009C400120F09D0020F0B5D0241A
:1003A000012257464E464546DE4624066368E0B5C0
:1003B000DB0A134098466368304FDB091A40304B24
:1003C00083B09B462F4B94469A462F4B0021012623
:1003D0009946012501970FE0012E48D0019F38680A
:1003E0007860002B3AD1642E2CD09C469046019820
:1003F00001360430019004315A4650466368234F59
:10040000DB092B4053506268120A2A40425048468A
:100410006268D20A2A4042506068800A28407850B8
:1004200060681B4F400A2840785060460128D3D1AD
:10043000002B0ED1012ED8D0019F38680130786092
:10044000642ED2D103B03CBC90469946A246AB463E
:10045000F0BD012E02D0019F386878604046012827
:10046000C1D1002ABFD1019F2B307860BBE7002BA0
:10047000BBD040460128B6D1F3E7C04674750320CF
:10048000CCC803203CC703205CCA0320800603209D
:1004900048C50320D02301221B069A617047C0463D
:1004A000D0231020202140221B06586159615A6137
:1004B000586159615A6170470122014B1A607047B7
:1004C0008C450120F0B557464546DE464E46012094
:1004D000E0B5D02589B00021404202F0F5FC802330
:1004E0002D066A68A9491B011A400A60A84980279D
:1004F000096880268846A7497F0009680793069106
:10050000A54909680591A54909680291A4490968A6
:100510000391A44909680491A349086849680090B7
:100520000191A2498A466B683B42FCD06B683B4212
:10053000FCD143462B3B092B7CD8059B002B00D1DB
:10054000E5E080231B03AB61012306990B4200D138
:1005500007E18023DB016B610B005B100693944B7A
:1005600093491B6801330B604346343B591E8B4152
:1005700005995B42194005916B681E42FCD033001F
:100580006C6823402642FAD19B46079B234099463C
:10059000002A15D1002B13D0864B864A1B682C21CC
:1005A000013313602C23002298460120A31203403C
:1005B0009340039A1A43039237295BD94A46B2E71C
:1005C00040463821013005F0A7FD0A002C3A884644
:1005D000092AEAD90A000E3A0F2A32D80121A312B9
:1005E0000B409340029A1A43434602921D2B00D0BF
:1005F000BCE01300704A9446802263445201934247
:1006000000D391E06D4A6D4912689B0001320A6087
:100610006B4AD358069301239B4601226312134071
:100620005B070099019A0B4300935B460192059387
:100630004A4678E74346352B9ED180231B036B61E6
:100640009AE70729B8D8012364121C4023008B4085
:10065000049A20201A43049242464042E11712189D
:1006600059D494400099019A22430B43019200937C
:100670004A4658E70123202264121C404346524256
:100680009B1864D422009A4013004246944000997B
:10069000019A1A4343460C4300940192372B8DD1A3
:1006A00053461B68474A02999B00D15053461B682A
:1006B000454A03999B00D15053461B68434A04990D
:1006C0009B00D1505346424A1B6894460099019AB8
:1006D000DB00634419605A6053461C6818683D4942
:1006E000013005F019FD534619603B4B1A6853461B
:1006F0001B689A4201D153461C60002300240493D6
:100700000293039300234A46009301940BE780234E
:100710001B036B6128E740462022121AD440814017
:1007200022000C0014439DE72C49029B8C46634435
:10073000934200D371E7214A204912689B0001329D
:100740000A60274AD358069301239B4665E7424631
:1007500020239B1A22004146DA4000238B4013439A
:1007600093E78023DB01AB610B00F6E60120641206
:1007700042462040002109F081FB009B019C184368
:1007800021434A4600900191CDE6C046284A012007
:100790005C4401200C460120104601204844012001
:1007A000244A01204C4A0120783F01209045012035
:1007B00014460120784A01200080FFFF1C460120DA
:1007C00044B80020ACB90120B84A01201008032029
:1007D000302A0220581B0000944501200070FFFFC2
:1007E00044F8002030B5D0240120240661686268F6
:1007F000636865686468AD0ADB0A120AC909640A9D
:1008000083B003400240014004402840009001941E
:10081000024806F067FD03B030BDC0467CA0002052
:10082000B02310B5002202481B0206F05BFD10BD8C
:10083000A8A00020084B10B51968084806F052FD22
:10084000074B0848196806F04DFD074B0748196823
:1008500006F048FD10BDC04614460120B4A000209B
:100860001C460120D4A00020784A0120F4A00020DA
:10087000F0B557464E464546DE46174BE0B59B461B
:10088000164B00249A46164B00259946154B164FD9
:100890009846164E85B04B461B5952460393434625
:1008A0001B59290002933B591148019333590135D3
:1008B00000935B4612591B5906F014FD0434642D55
:1008C000E9D10A2006F006FC05B03CBC90469946EA
:1008D000A246AB46F0BDC0463CC70320CCC80320AF
:1008E0007875032048C50320800603205CCA0320D6
:1008F00014A10020F0B557464E464546DE46E0B509
:10090000D0270020002189B03F067A6880238246E4
:100910000690049049488946804680261B011A406B
:10092000059107937B681E42FCD034007D682C4003
:100930002E42FAD1079B2B409B46002A0DD1002B5B
:100940000BD001232C21AD121D40069B2B43069397
:100950005346642B3AD05A46E4E7481C382105F048
:10096000DBFB0B002C3B092B5FD90A000E3A0F2A48
:100970004ED80120AB1203409340059A1A430592CA
:1009800001236D121D408D404B462B43994637295C
:10099000DED1534605982A4A9B0098500698294A6A
:1009A0009850294A0498985053464A46DB004344DD
:1009B0001A60D2175A6001239C460023E2449946EC
:1009C0000593069304935346642BC4D11F4B1C4ECE
:1009D00099461C4F1C4DE10041440868496804CE0B
:1009E0000290039108CD2100019308CF484600935F
:1009F0000134130006F076FC642CECD10A2006F0DA
:100A000069FB09B03CBC90469946A246AB46F0BD96
:100A10000729B5DC01236D121D408D40049B2B433B
:100A200004934B462B43994692E70120AA120240B9
:100A30009A40069B13430693A2E7C0461027022064
:100A400018B80120F0040320B8C303204CA10020F3
:100A500070B5084C084D2600E436217862682800FD
:100A60000C3406F03FFCB442F7D10A2006F032FB0A
:100A700070BDC046983D012088A1002010B5FA2025
:100A8000800006F03FFC431CF9D0010030390929F1
:100A90000ED9D023022200211B065A6102325A616C
:100AA000D02308221B065A61144806F01BFC10BD17
:100AB00007234B40DA0718D4D020022200068261B7
:100AC00004201A400340002A0AD1D0220420120632
:100AD0009061002BE4D1D02308221B069A61E3E742
:100AE000D022042012065061F3E704241A002340A8
:100AF000D0240220240602406061E4E790A1002097
:100B000010B5FA20800006F0FDFB431CF9D001006F
:100B1000303909290ED9D023102200211B065A6131
:100B200010325A61D02340221B065A61154806F044
:100B3000D9FB10BD07234B40DA0719D4D02210206F
:100B40001206906102220C381A400340002A0AD192
:100B5000D022202012069061002BE3D1D023402226
:100B60001B069A61E2E7D022202012065061F3E7CB
:100B7000042002221A400340D020102400064461C1
:100B8000E4E7C046A0A10020F8B5D0248027802546
:100B90002406FF03AD0301200021A76202F0CCFF71
:100BA00001200021A56202F0C7FF6562012000213B
:100BB000A56102F0C1FF0726012000216762A7613D
:100BC00002F0BAFF01200021A56202F0B5FF013E4C
:100BD000656201200021A56102F0AEFF002EEBD17D
:100BE000D0248025802324069B03ED03A5620120E9
:100BF000A362002102F0A0FF642302E0013B002B6E
:100C00000FD062682A42F9D10124D02380221B062A
:100C100092035A62012000219A6102F08DFF2000A8
:100C2000F8BD0024F1E7C0468023F0B5C646D025C4
:100C30008026DB0304000827984600B52D06B6037E
:100C400016E043466B62AB610120002102F074FFA5
:100C500001200021AE6202F06FFF64006E6201208D
:100C60000021AE61013F02F067FFE4B2002F05D022
:100C700063B2002BE5DA4346AB62E5E7D02480257A
:100C8000802324069B03ED03A5620120A3620021BB
:100C900002F052FF642302E0013B002B11D0626896
:100CA0002A42F9D10124D02380221B0692035A62E2
:100CB000012000219A6102F03FFF200004BC904611
:100CC000F0BD0024EFE7C046D02301221B065A6185
:100CD0007047C04670B58023D025DB032D066B62BC
:100CE0000600AB610C000120002102F025FF8023EB
:100CF0009B036B620120AB61002102F01DFF307984
:100D0000E51C4000C0B2FFF78FFFFFF73DFF2078E2
:100D10000134FFF789FFAC42F7D1D02480232406A9
:100D20009B03A3620120002102F006FF8023DB0366
:100D300001200021A36202F0FFFE70BDF8B54E460F
:100D40004546DE4657468046E0B508000E0009F0ED
:100D5000E5F800285ED080278346D024FF03BA46FA
:100D6000B344240635780120203DAB005D192C4B9F
:100D700000219C4653466362A361654402F0DCFE99
:100D800080239B03002163620120A36102F0D4FE53
:100D9000434618794000C0B2FFF746FF4020FFF7F6
:100DA00043FF6B1D994628780135FFF73DFFA945A4
:100DB000F9D18025AD0301200021A56202F0BCFE1F
:100DC00001200021A76202F0B7FE01200021676226
:100DD000A76102F0B1FE002101206562A56102F069
:100DE000ABFE4346187901364000C0B2FFF71CFF46
:100DF0004020FFF719FF0020FFF716FF0120002118
:100E0000A56202F099FE01200021A76202F094FE83
:100E1000B345A7D13CBC90469946A246AB46F8BD27
:100E200044380120F0B55746DE464E464546E0B50B
:100E30005F4B89B01A68002602929A880B205A608C
:100E40005C4B04921A685C4F03929A8801965A6030
:100E50005A4B93461B68059320239A46113B9846AC
:100E600030339C4617E001228240059C224002411B
:100E700005D140321343019ABB540132019200293B
:100E800007D0802900D187E0C02956D0402900D161
:100E900088E0013858D3202381005B42CC183BD432
:100EA0004246A24045468D40039B2B4099465B46F7
:100EB0001340002C1ADBE340029E1B013540049EC8
:100EC0003240002C20DBE2401343DBB262461900C3
:100ED000134091435A1E192AC5D9002B27D01F2B26
:100EE0001FD0019ABB5401320192C8E75646761AC8
:100EF000B3401E004B46CB403343029E1B0135409E
:100F0000049E3240002CDEDA5446641AA2401400DB
:100F10002A00CA402243D7E7534642465B1ADA40CA
:100F2000C0E75F23019ABB5401320192A7E7402337
:100F3000019ABB5401320192A1E72C23019ABB54C0
:100F4000013201920138A6D20023019E39001C48CB
:100F5000BB5506F0C7F91B4C04E0022221003818EB
:100F600005F0AEFF380008F0D9FF0E28F5D9B223FE
:100F7000154C06AA93802000A23B07A99371FFF7A6
:100F8000A9FE39002000FFF7D9FE09B03CBC90460D
:100F90009946A246AB46F0BD3A23019ABB540132B2
:100FA000019276E72E23019ABB540132019270E739
:100FB000804001208840012014C7032008460120FA
:100FC000B8A10020B4A10020903D01200023F0B57D
:100FD00057464E464546DE4699468023E0B5DB033C
:100FE000D0248025824698469B464E4683B001AF6A
:100FF0002406AD03F310503B3B7000237B7010338D
:10100000BB705B46012063620021A36102F094FD86
:10101000012000216562A56102F08EFD534618791A
:101020004000C0B2FFF700FE33003E009946FFF7D4
:10103000ABFD3078FFF7F8FD6B46013607339E4273
:10104000F5D101200021A56202F076FD4346012082
:101050000021A36202F070FD43460120636200217B
:10106000A36102F069FD002101206562A56102F023
:1010700063FD534618794000C0B2FFF7D5FD40200C
:10108000FFF7D2FD80231E000E4B013E1878FFF7BC
:10109000CBFD002EF8D101200021A56202F04CFD0D
:1010A0004E46434601200021A362083602F044FD6B
:1010B000402E9FD103B03CBC90469946A246AB4619
:1010C000F0BDC046AA4A0120F8B5D024802680256C
:1010D00007002406AD03F603666201206562002165
:1010E000A661A5616662A66102F026FD6562012027
:1010F000A561002102F020FDA5620120002102F07F
:101100001BFD01200021A66202F016FD666201208F
:101110000021A66102F010FD65620120A561002199
:1011200002F00AFD38794000C0B2FFF77DFD0F4C98
:1011300025001E35FFF728FD20780134FFF774FDE8
:10114000AC42F7D1D024802324069B03A362012064
:10115000002102F0F1FC8023DB030021A3620120C7
:1011600002F0EAFC3800FFF731FFF8BD283A012011
:1011700010B5002001F0C8FD012001F0C5FD0220DE
:1011800001F0C2FD032001F0BFFD042001F0BCFD11
:10119000052001F0B9FD062001F0B6FDD0230122A3
:1011A00002211B065A6259620231596204315962A6
:1011B0000831596210315962203159625A6110BDAB
:1011C00010B5112001F0A0FD122001F09DFD1320AB
:1011D00001F09AFD142001F097FDD0248020802199
:1011E000802280232406C90212035B03800260620E
:1011F000616262626362606161610E20626163616B
:1012000001F082FD8023DB016362A36110BDC04653
:1012100010B50720D02401F077FD80232406A362B7
:10122000082001F071FD80235B00A3620B2001F018
:101230006BFD80231B01A3620A2001F065FD802362
:10124000DB00A362092001F05FFD80239B00A36205
:1012500010BDC046F0B583B020236A468349040020
:10126000938008F017FE002803D131236A4601ACB1
:10127000137120007E4908F00DFE002800D199E08E
:1012800020007C4908F006FE002800D18EE0D02323
:1012900001221B069A61322002F066FC23780022AC
:1012A000002B0CD00320744E744DF15C01320140D0
:1012B000022900D173E0AB54A35C002BF5D10023CD
:1012C0006F4F704E3C003968B3540B7800250C34D6
:1012D000002B06D161E0216801350B780C34002B1E
:1012E0005BD0300008F0D6FD0028F4D1310066480C
:1012F00005F0F8FF6B005A199200BA1851680722DE
:101300004A40D1075BD4D0210220090688619107A9
:101310005BD5D02104200906486152075BD5D02255
:1013200008215B199B00FF18072312065161BA6858
:101330005340DA075BD5D0221021120651619A077B
:101340005BD5D0222021120651615B075BD5D023EB
:1013500040221B065A61D0240125240632206561F3
:1013600002F002FC3220A56102F0FEFB3378424A13
:10137000D35C5B0761D43000444908F08BFD002842
:1013800064D03378582B4AD033782E2B40D0337822
:10139000452B02D17378452B5DD003B0F0BD203BC7
:1013A000AB54A35C002B00D07FE788E7643002F0E9
:1013B000DBFB6CE7FA20C00002F0D6FBEDE7D021A2
:1013C0000220090648619107A3D4D0210420090610
:1013D00088615207A3D4D02208215B199B00FF1813
:1013E000072312069161BA685340DA07A3D4D022CA
:1013F0001021120691619A07A3D4D022202112064F
:1014000091615B07A3D4D02340221B069A61A2E717
:101410007378002BBBD1C82002F0A6FBB7E7737826
:10142000452BB1D1B378512BAED1F378002BABD192
:10143000FA20C00002F098FBA6E7C82002F094FB57
:101440003000124908F026FD00289AD1FA20C00089
:1014500002F08AFB95E7B378582B9ED1F378002BE6
:101460009BD1C82002F080FB97E7C046C0A10020B6
:10147000C8A10020D0A1002035AF0020DFC6032086
:10148000483A0120E0C60320D4A10020E4A10020B6
:1014900070B5154D2800FFF7DDFE1448FFF7DAFEA2
:1014A000134C2000FFF7D6FE1248FFF7D3FE2000B2
:1014B000FFF7D0FE104C2000FFF7CCFE0F48FFF7DF
:1014C000C9FE0F48FFF7C6FE0E48FFF7C3FE200017
:1014D000FFF7C0FE2800FFF7BDFE2000FFF7BAFEB1
:1014E0000948FFF7B7FE70BD4CA90020F0A100200D
:1014F000A8A80020C8A50020DCA80020ACA70020D8
:10150000F0A5002090A70020F8A1002070B5044CA1
:1015100025008C3501CCFFF79DFEAC42FAD170BDA1
:1015200038B00020F0B5DE464E465746454600230B
:10153000E0B597B0302200210AA8099305F0BAFC63
:10154000DA4805F019FE00230793D94B99464B461C
:101550001A68D84B1B689A4200D172E1D64B984664
:101560002AE0B8239B009C4200D1EEE0D34B1B68DD
:10157000002B12D0EA239B009C4200D18FE100DDBA
:10158000A3E0A82C04D000DD10E1282C00D009E154
:1015900001234246CA4913600C60C64BC94918680A
:1015A000013004F0B9FDC34B19604B461A68C14BBA
:1015B0001B689A4200D144E1C349BE4B8C461B686C
:1015C000C24A9B00D358BB4BC14A1B689B00D458EE
:1015D000B84BC04A1B689B00D258B64B1B68DB0057
:1015E00063441868596843461B6800900191002BBA
:1015F0005BD04346002194201960B14940000B683C
:10160000834200D1A9E100DD86E0682B00D1A2E190
:10161000A82B00D0D0E0009801990B0702091A43CB
:101620000B0902920393029D039E2A003300521974
:101630007341150002232A0005000E001A40090616
:101640002B0A0B4304219B000B40033929401A430A
:101650000A432B0B31050B430821DB000B401A43D7
:1016600031042B0C0B4310211B010B401A43310397
:101670002B0D0B4320215B010B4028001A432D0E3C
:1016800033021D434023AD011D402A433301050FA2
:101690001D43FF23ED011D408F4B15431D608F4BF4
:1016A0001B68002B01D0FFF7BDFBC8239B009C42A9
:1016B00072D0D0339C4200D053E781490123424687
:1016C0001360FC239B000B6067E7FA239B009C429E
:1016D00000D1E4E010339C423BD10F20804C636882
:1016E0002268190B0140150F1B01120111432B43F6
:1016F0000AC47C4C636821681A0B02401B01080F66
:10170000090103430A430CC4744B1B68002B00D12E
:1017100043E7FFF787FB40E7FA208000834200D1D0
:10172000EAE00830834257D1FD2A00D188E1002049
:10173000624A1060C822920094422DD09C42BDD0D3
:10174000B8239B009C4200D027E70022634B1A601D
:1017500023E7403B9C4200D01FE7F020604C000292
:10176000236862681903014015071B091209114318
:101770002B43236061605B4C236861681A0302405D
:101780001B09080703432360544B09091B680A43DC
:101790006260002BBDD100E7504A136859424B41AB
:1017A0001360FAE6682C00D1F2E6F6E694235B00BB
:1017B0009C4200D1ECE6F0E6282B00D075E7484AC1
:1017C000009801990B041B0C5360444B10601B687C
:1017D000002B00D067E768E7EA229200934200D02E
:1017E00063E7009E3E4F3603B446F0263602B2460B
:1017F0007B6866461A071B09059353461E40B4468C
:101800000026394B39681E60664609091143396064
:101810000599344831437960514642685E60150746
:101820000268009B12092A4345681B020B402D09E0
:101830001D432A4B02601B684560002B00D032E735
:1018400033E7FA20800005F05DFD431C00D17EE601
:10185000264B1B5C1B0700D406E1202800D103E1C6
:10186000002409AB079A180021499C5408F012FB88
:10187000002800D11BE11F4909A808F00BFB002834
:1018800000D114E108AB1B79272B00D1FDE009A89A
:10189000FFF7E0FC002308AA1371079357E6012322
:1018A00042461360064B1C6077E6C046FCA1002050
:1018B0009045012094450120404A01200046012026
:1018C000444A0120581B0000302A0220ACB90120F4
:1018D000B84A0120100803200846012004460120D0
:1018E0008040012088400120D8C6032035AF002069
:1018F00008A2002010A20020704F71483B68796850
:101900001E0105960F26B4461A0F6346009E090174
:101910001E406C4BB2461E6000265E605346059E1C
:1019200011431E4379603E60009E019F39073309D1
:101930000B43614602680B40150F426812012A43AF
:10194000056842602D011D435F4B05601B68002B3D
:1019500000D0A8E6A9E65A4A32E70099019A130591
:10196000080B564F184382461302080E18431609F7
:101970003B687A681B0911070B43F0218346100965
:10198000009A090212030A4002431B09000703439D
:10199000504600031209084010431B091207134365
:1019A0005A46120300090A4002431B090007034379
:1019B0004348120906924268456812099446059305
:1019C0002B070568009A2D091D43130262460B4040
:1019D00013432D09120715431A09944652462D093F
:1019E00013026246AC460B401343120715006246D1
:1019F0001543AC465D4662462D021B090D401D4352
:101A000012091B071A432B0935030D40AB4600256D
:101A100094462C4A156015005A466A605D46059A40
:101A20003A60069A2A437A603202114062460B43BA
:101A30004360254B02601B68002B00D033E634E680
:101A40000120224A1060C8229200944200D1A3E6ED
:101A50009C4200D132E6B8239B009C4200D089E52D
:101A60000022194B1A6098E5079A09A9531C88545B
:101A7000002209A9CA540793312B01DD31230793B2
:101A800009A9134805F02EFC61E508AB5C705B7991
:101A9000002B00D1FEE608AA541D08AA100001344C
:101AA0001370FFF7D7FB2378002BF6D1F2E617B0BF
:101AB0003CBC90469946A246AB46F0BD8040012012
:101AC00088400120D8C6032004460120004601209A
:101AD00018A20020F0B5DE4657464E464546E0B512
:101AE000CB4B89B00393039B1B6818000093FFF74F
:101AF000B1FBC84B1A68C84B1B689A4200D173E10E
:101B0000C64B99462AE0B8239B009C4200D1EFE0E7
:101B1000C34B1B68002B12D0EA239B009C4200D1D0
:101B200070E100DDA4E0A82C04D000DD11E1282C38
:101B300000D00AE14A4601231360BA4A1460B64B4A
:101B4000B9491868013004F0E7FAB34B1960B14B9A
:101B50001A68B14B1B689A4200D145E1AE4BB34ABB
:101B60001B689B00D358AC4BB14A1B689B00D458F0
:101B7000A94BB04A1B689B00D158AF4AA64B94466C
:101B80001B68DB0063441A685B68009201934B4654
:101B90001B68002B5CD000239B464B465A46942082
:101BA0001A60A04A40001368834200D183E100DD3F
:101BB00085E0682B00D17CE1A82B00D0CFE0009815
:101BC00001990B0702091A430B0904920593049D1E
:101BD000059E2A00330052197341150002232A0082
:101BE00005000E001A4009062B0A0B4304219B0036
:101BF0000B40134301222A40134331052A0B0A43A9
:101C00000821D2000A40134331042A0C0A43102150
:101C100012010A40134331032A0D0A4320215201C5
:101C20000A40134331022A0E0A43402192010A401E
:101C300013432D0F32011543FF22ED0115407F4A5A
:101C40002B4313607E4B1B68002B01D0FFF7EAF893
:101C5000C8239B009C4272D0D0339C4200D052E7F4
:101C6000704A012349460B60FC239B00136066E722
:101C7000FA239B009C4200D1C4E010339C423BD12C
:101C80000F24704A53681068190B2140050F00019A
:101C900001431B016C482B430AC2436801681A0BBD
:101CA00022401B010C0F090123430A430CC0644B63
:101CB0001B68002B00D142E7FFF7B4F83FE7FA209A
:101CC0008000834200D1C5E00830834257D1FD290E
:101CD00000D157E1584652490860C82189008C421A
:101CE0002DD09C42BDD0B8239B009C4200D026E75B
:101CF0000022534B1A6022E7403B9C4200D01EE773
:101D0000F024504A24021368506819032140050743
:101D1000000901431B094C482B43136003685160C1
:101D200041681A0322401B090C0723430360444BFC
:101D300009091B680A434260002BBDD1FFE6404AF7
:101D4000136859424B411360F9E6682C00D1F1E663
:101D5000F5E694235B009C4200D1EBE6EFE6282BEE
:101D600000D075E7374A009801990B041B0C5360AB
:101D7000334B10601B68002B00D067E768E7EA224E
:101D80009200934200D063E7009E2E4F3603B44684
:101D9000F0263602B0467B6866461A071B09069392
:101DA00043461E40B4465E46284B39681E60664670
:101DB0000909114339600699234831437960414646
:101DC00042685E6015070268009B12092A43456855
:101DD0001B020B402D091D43194B02601B68456017
:101DE000002B00D032E733E7039B194A04330393F7
:101DF000934200D077E609B03CBC90469946A24693
:101E0000AB46F0BD01234A461360064B1C6096E6C4
:101E1000C4B000209045012094450120404A012093
:101E200000460120444A0120581B0000ACB90120A3
:101E3000B84A012010080320302A02200846012059
:101E4000044601208040012088400120D8C603209C
:101E500044B60020554F56483B6879681E010696E7
:101E60000F26B4461A0F6346009E09011E40514BCF
:101E7000B0461E605E465E604346069E11431E43AA
:101E800079603E60009E019F390733090B4361462C
:101E900002680B40150F426812012A430568426030
:101EA0002D011D43444B05601B68002B00D0CDE67F
:101EB000CEE63F4A57E70099019A1305080B1843ED
:101EC000824613020E0E1E431309384A06939446A7
:101ED0005368F02712680098190712090A43010392
:101EE00050463F021B093940194312091B071A4388
:101EF000030309093B400B43120909070A43310355
:101F00001B0939402A4D1943090968680791296856
:101F10001B0712091A4300070B090099034368685D
:101F200009020009394001431B090007034308095E
:101F300051460902394001431B090007034330029F
:101F40000909384008431B0909070B4300935B4606
:101F5000010988461749069E0B60634630033840E6
:101F6000486007991A6001435960009B30022B605A
:101F7000434638401843104B68601B68002B00D064
:101F800064E665E601200D490860C82189008C429D
:101F900000D1D4E69C4200D163E6B8239B009C426A
:101FA00000D0B9E50022044B1A60C8E5804001204A
:101FB00088400120D8C603200446012000460120A5
:101FC000F0B54E46DE46574645460023E0B5D54AB5
:101FD00089B01360D44B0393D44B9946039B1C6880
:101FE000200007F09BFF21000200D14807F0CAFF44
:101FF000002800D064E2CF48FFF72CF94B461A685E
:10200000CD4B1B689A4200D172E1CC4B98462AE036
:10201000B8239B009C4200D1EEE0C94B1B68002B0B
:1020200012D0EA239B009C4200D174E100DDA3E0C2
:10203000A82C04D000DD20E1282C00D019E10123D8
:102040004246C04913600C60BB4BBF491868013061
:1020500004F062F8B84B19604B461A68B64B1B681F
:102060009A4200D144E1B949B34B8C461B68B84A47
:102070009B00D358B04BB74A1B689B00D458AE4B5B
:10208000B54A1B689B00D258AB4B1B68DB0063440E
:102090001868596843461B6800900191002B5BD07B
:1020A0004346002194201960A64940000B688342F2
:1020B00000D163E100DD86E0682B00D15CE1A82B54
:1020C00000D0C6E0009801990B0702091A430B09DA
:1020D00004920593049D059E2A0033005219734112
:1020E000150002232A0005000E001A4009062B0ADB
:1020F0000B4304219B000B40033929401A430A4338
:102100002B0B31050B430821DB000B401A43310434
:102110002B0C0B4310211B010B401A4331032B0DD9
:102120000B4320215B010B4028001A432D0E330284
:102130001D434023AD011D402A433301050F1D43BC
:10214000FF23ED011D40854B15431D60844B1B682B
:10215000002B01D0FEF766FEC8239B009C424FD0A7
:10216000D0339C4200D053E77649012342461360A6
:10217000FC239B000B6067E7FA239B009C4200D185
:10218000C9E010339C4241D10F20764C636822682D
:10219000190B0140150F1B01120111432B430AC4F7
:1021A000714C636821681A0B02401B01080F09017A
:1021B00003430A430CC46A4B1B68002B00D143E75E
:1021C000FEF730FE40E7FA208000834200D148E16C
:1021D0000830834257D1FD2A00D17DE10020584AC2
:1021E0001060C822920094420AD09C42BDD0B8230D
:1021F0009B009C4200D027E70022594B1A6023E73E
:10220000574A136859424B4113601DE7403B9C42BB
:1022100000D019E7F020534C0002236862681903CC
:10222000014015071B09120911432B43236061600C
:102230004D4C236861681A0302401B0908070343D9
:102240002360474B09091B680A436260002BB7D122
:10225000FAE6282B00D07FE7424A009801990B0448
:102260001B0C53603E4B10601B68002B00D071E7C5
:1022700072E7682C00D1E2E6E6E694235B009C421C
:1022800000D1DCE6E0E6EA229200934200D063E768
:10229000009E344F3603B446F0263602B2467B68C1
:1022A00066461A071B09069353461E40B44600268D
:1022B0002E4B39681E60664609091143396006993C
:1022C000294831437960514642685E6015070268CB
:1022D000009B12092A4345681B020B402D091D4330
:1022E0001F4B02601B684560002B00D032E733E7CC
:1022F000039B1F4A04330393934200D06EE6094BBD
:102300001C48196804F0EEFF09B03CBC90469946A1
:10231000A246AB46F0BD012342461360094B1C6048
:1023200092E6C046344A012044B600209045012080
:1023300014C7032054A2002094450120404A0120E4
:1023400000460120444A0120581B0000302A022088
:10235000ACB90120B84A012010080320084601202A
:10236000044601208040012088400120D8C6032077
:1023700044B8002058A20020614A6EE70099019AF3
:102380001305080B5F4F184382461302080E1843CB
:1023900016093B687A681B0911070B43F021834635
:1023A0001009009A090212030A4002431B090007A0
:1023B0000343504600031209084010431B0912074B
:1023C00013435A46120300090A4002431B0900073F
:1023D00003434B4812090792426845681209944624
:1023E00006932B070568009A2D091D4313026246C8
:1023F0000B4013432D09120715431A099446524600
:102400002D0913026246AC460B4013431207150018
:1024100062461543AC465D4662462D021B090D40DF
:102420001D4312091B071A432B0935030D40AB4608
:1024300000259446344A156015005A466A605D4688
:10244000069A3A60079A2A437A603202114062463D
:102450000B4343602D4B02601B68002B00D079E6D4
:102460007AE6284F26483B6879681E0106960F26B3
:10247000B4461A0F6346009E09011E40224BB24625
:102480001E6000265E605346069E11431E4379601F
:102490003E60009E019F390733090B436146026885
:1024A0000B40150F426812012A43056842602D0156
:1024B0001D43164B05601B68002B00D04AE64BE617
:1024C00022001349134804F00DFF134B124A1B68F6
:1024D0000093013313608EE50120104A1060C8227A
:1024E0009200944200D18BE69C4200D13DE6B82395
:1024F0009B009C4200D094E50022044B1A60A3E5A7
:102500008840012080400120D8C6032004460120D5
:1025100014C7032024A20020344A012000460120D1
:102520001A4B10B51B681A4A002B24D11368FA21E4
:1025300049008B4217DAFA20800004F0E3FE431CC6
:102540001DD0144C0023220003E001330C32132B66
:1025500008D011788142F8D15A00D3189B00E418B2
:10256000A368984710BDFA2000238000136004F090
:10257000C9FE3020E5E7136801331360D7E704F0A4
:1025800031FE054804F0AEFEECE7C046484A0120A3
:102590003C4A0120983D012070A20020F0B5DE46A3
:1025A00057464E464546E0B58DB0CE480BAB0AAA1D
:1025B00009A900F0F3FA002803D1CA49CA4801F07A
:1025C00073FF0B9A0A99099800F0ACFA04F096FE92
:1025D000FA20C00001F0C8FAC44C200004F082FECA
:1025E000C34804F07FFE200004F07CFE0A2004F0C3
:1025F00071FDC04804F076FE162000F085FB152022
:1026000000F082FBBC4C2000FEF75EFDB12308AA5F
:1026100093812000A13B0BA99373FEF75BFBB749A5
:102620002000FEF78BFBB64804F05CFEFEF7A0FD31
:10263000B44804F057FEFEF7C3FDB34804F052FE61
:10264000FEF7E6FDB14807F0F1FBB14804F094FD58
:10265000B04BB14D9846B14B9946B14B9B46B14BEF
:102660009A4622E0113BFF3B9C4200D1D3E0AE4BA7
:102670001B680093002B12D0EA239B009C4200D1E0
:1026800032E200DDFAE0A82C04D000DD23E1282CA2
:1026900000D01CE1434601221A60A44B1C6028684C
:1026A000A349013003F038FD2960A24B1A682B685A
:1026B0009A4200D173E12B689F4A9B00D3582B6844
:1026C0009E4A9B00D4582B689D4A9B00D0589D4A37
:1026D0002B689446DB0063441A685B6800920193A0
:1026E00043461B68002B56D04246002394211360BA
:1026F0008E4A490012688A4200D18DE174DC682A52
:1027000000D17BE1A82A56D1009E019F3B073209E8
:102710001A433B0902920393029803990B000200AB
:1027200012184B41110002230A00310A1A403B06DD
:102730001943042389000B40134301223240134301
:10274000310B3A0511430822C90011400B43320CEA
:1027500039040A43102112010A4013433903320D90
:102760000A43202152010A4013433902320E0A4320
:10277000402192010A401343360F3A011643FF22CB
:10278000F60116401E43704B1E6053461B68002B1B
:1027900001D0FEF747FBC8239B009C421DD0D033DD
:1027A0009C4200D05EE7434601221A60FC235F4A48
:1027B0009B00136073E7282AEDD10099019A4B46DC
:1027C000196013044A461B0C536053461B68002BC8
:1027D000DFD1C8239B009C42E1D153461B685A427B
:1027E0005341524613605AE7FA2189008A4200D1C8
:1027F000D8E008318A4212D1FD2800D17CE14A4953
:102800000B60C8239B009C42E7D09442CBD0403B56
:102810009C4200D043E70023524613603FE748390B
:102820008A42B8D14A4648465268006811070009F2
:10283000160908435A4659460596F026576809680E
:102840003A0709091143009A360212033240B4468E
:102850003E4E3F0933604B467260059E186032431E
:102860005A606246009B1B0213405A463B4353602A
:1028700053461B681160002B8BD18CE7FA239B0019
:102880009C4200D106E710339C4261D14B460F2099
:102890001C685B68210F1A0B1B0102400B432101CE
:1028A00011434A460AC25B460ACB1A0B0240080F84
:1028B00009010A4359461B0103434B6053461B68F9
:1028C0000A60002B00D1EAE6FEF7ACFAE7E6682CD6
:1028D00000D1DFE6E3E694235B009C4200D1D9E619
:1028E000DDE6C046B01E0400F4A2002074A2002061
:1028F00084A2002094A20020903D0120A8A20020E4
:10290000B0A20020C4A20020D8A20020850200208E
:10291000ECA20020404A0120944501208040012083
:10292000884001200446012000460120444A01203D
:10293000581B000090450120ACB90120B84A012085
:1029400010080320302A022008460120D8C60320A0
:10295000403B9C4200D0A2E64A464B4654681B6866
:10296000F020220719031B09134322094C460002D9
:1029700001400A4323605B4662605A461B68516807
:102980001A0302401B0908070343584603605346D5
:1029900009091B680A434260002B95D17FE6FFF7C7
:1029A000BFFD82E64A46494612685E46100F17018F
:1029B0005A46496876680901014310683601020FDA
:1029C00016430F22B446009E00013240524E0CC600
:1029D0004B460F263A431A6059600099019A130733
:1029E0000A091A4316405B466246304318605A6033
:1029F00053461B68002B00D0CBE6CCE65B46009923
:102A0000019A196013045A461B0C536053461B6805
:102A1000002B00D0BDE6BEE6009E019F3A05310BBB
:102A20001143300E3A0210434E464A463668526809
:102A3000844636091007064300983F0905970703A7
:102A4000F020000212090740174336091207164307
:102A50000A033F0902403A4336093F073E436746AF
:102A60003F031209074017433609120716433A0974
:102A700007925A4657681268069612093E07324373
:102A80003E09009F12093F02074037433607324391
:102A9000664609023F090140394312093F073602E1
:102AA0003A430909059F06400E43120909070A43E4
:102AB000390301408C46184936090B6063464B6068
:102AC0004946069B0B606146079B19434B4659607C
:102AD0003B0218405B4606431A605E6053461B6823
:102AE000002B00D055E656E6434601221A60EA2242
:102AF0000A4B92001A60D2E50121094B1960C823E4
:102B00009B009C4200D168E6944200D14BE6403BDA
:102B10009C4200D0B0E57EE6D8C60320444A01209E
:102B200000460120F0B583B005000E00140000F04F
:102B30007BF9002801D003B0F0BD154F01223B0006
:102B400001210097053001F0CDFC33002A000094EC
:102B50000121104801F0B4FE21002800714303F068
:102B600003FB04000C4B002200930221042001F01F
:102B7000B9FC2300002201210094052001F0B2FCE1
:102B80003B00022200210097062001F0ABFCD2E7B7
:102B9000006CDC0200800240001BB700F0B5DE468E
:102BA00057464E464546E0B5070083B004209B4695
:102BB0000091019201F07EFEFA21890003F0D4FA1F
:102BC00032238246FF33994686005644B6014C4B69
:102BD0004C4AF318072493420BD901235B429C46CD
:102BE0005346E144F61A4B46002BF0D100205AE040
:102BF000012421003000614303F0B6FA874259D026
:102C0000631E9846012CE8D01D0065433000290062
:102C100003F0AAFA874251D0A31E9846022CE7D0AF
:102C20002D1B2900300003F09FFA874249D0E31E94
:102C30009846032C4BD02D1B2900300003F094FA4A
:102C4000874246D0231F9846042C48D02D1B2900CC
:102C5000300003F089FA874243D0631F9846052C61
:102C600045D02D1B2900300003F07EFA874240D06A
:102C7000062C42D03000E91F03F076FA0624874282
:102C8000B7D10029B5D101230724984673019B1BB6
:102C90009B009E19009BF6001E60019B42461C6033
:102CA0005B4601201A6003B03CBC90469946A246A0
:102CB000AB46F0BD0029A3D1A046E7E70029ABD180
:102CC000E4E70029E2D0E31E9846032CB3D10224A6
:102CD0008FE70029DAD0231F9846042CB6D10324AD
:102CE00087E70029D2D0631F9846052CB9D1042468
:102CF0007FE70029CAD0062CBCD1052479E7C0465D
:102D0000508EF4FF50F80C000123D02283401206AD
:102D100093629361094A8300944640226344196890
:102D2000C0004A40C0211140802252011343196063
:102D3000034B9C46052360444360704704C0014038
:102D400000400140F8B5EFF3108772B60E4E3368BD
:102D5000002BFCD0BFF35F8FCB08C4180725A44617
:102D6000C45C01230D40AB4018002040234208D131
:102D7000624623431370BFF35F8F306087F3108880
:102D8000F8BD100001F090FB2C0100D0F8B5CE4644
:102D900047468C4680B5EFF3108872B6214D2C68FB
:102DA000002CFCD0BFF35F8F9A422CD8D4080721A7
:102DB000055D0619012411408C402C421FD00721CB
:102DC0008946063909E0D408055D06194C460F000E
:102DD0001440A7403C002F4211D001329342F2D25E
:102DE00001204042BFF35F8F00220E4B1A6088F330
:102DF000108800280FDB0CBC90469946F8BD2C4388
:102E000010003470EEE7BFF35F8F00232B6088F370
:102E10001088012040426346002BECD0089801F056
:102E200043FBC0462C0100D0024B18688007C00F3E
:102E30007047C04600C006400021044B044ABFF35F
:102E40005F8F02C39342FAD17047C046000100D0A1
:102E5000800100D0044A1078431CDBB2172B00D944
:102E6000102313707047C0467C3E012000B5054B0F
:102E700083B00100009318221F230348FFF786FF49
:102E800003B000BD1CAA002060450120012383403F
:102E9000002904D0034A1360034A13607047034AB1
:102EA0001360FBE780E200E000E100E080E100E089
:102EB00001228240034B1B681340581E8341D8B245
:102EC0007047C04600E100E0002904D0034B1860C1
:102ED000034B18607047034B1860FBE780E200E08B
:102EE00000E100E080E100E001238340014A13603B
:102EF0007047C04600E200E0084B10309B6880003D
:102F0000C358002B07D0064A00209B1A2F229A4252
:102F10004041C0B270470020FCE7C04600ED00E031
:102F2000803E0120024B10309B688000C0587047E3
:102F300000ED00E070B50D00EFF3108672B60F4A99
:102F40001368002BFCD0BFF35F8F0D4B10309B68D4
:102F500084001B590B4A934203D09D4201D001F0DB
:102F6000BBFA074B9B681D51BFF35F8FBFF35F8FA9
:102F70000022024B1A6086F3108870BD240100D035
:102F800000ED00E0CD010010F0B557464E46454635
:102F9000DE46E0B5894683B005001700EFF3108ADE
:102FA00072B65E4A1368002BFCD0BFF35F8F00201F
:102FB0005B4B18569B4600286DDB5A464400594E21
:102FC0002418A400331998469B7910351370564B7A
:102FD000AA009B6801929B589C469B1B2F2B29D8CB
:102FE000012261469143CB79BB4208D86BE0530084
:102FF0009B189B00F318DD79BD4252D919000622B7
:103000008A56002AF3DABD260B1D9B46360243463C
:103010005C46043B1B1B1B05444C5B0D23438B8010
:10302000887141468A714A46414B8E800B60CF7150
:103030008A601BE03F4B9C4542D142463E4B0234E6
:1030400013803E4B3619043B9E1B3605374B760DDD
:103050001E433B4B56809380FF23D77193714346A9
:103060004A469A60012342461A43944661462E4BD3
:10307000019A9B689950BFF35F8FBFF35F8F002267
:10308000264B1A608AF3108803B03CBC90469946E0
:10309000A246AB46F0BD01F01FFA5B460020185671
:1030A0008BE70B1D9B468B8804345B051B155B442B
:1030B00036199E1BE0233605760D1B021E43A6E73C
:1030C00001F00AFAB9E745460B001E489B1B5B411D
:1030D0005843000D184B2B80A31C9C46B4446546F6
:1030E000164B0434043B5B1B1B05104D5B0DAC46BB
:1030F0002B43454636196B800B1F9E1B6346A871F8
:1031000048463605760D1E43094BAE80EF71A86028
:103110000B60434613439C46A8E7C046240100D0F9
:10312000A64A0120803E012000ED00E000E0FFFF04
:1031300001488047CD01001000A1FFFFB03E0120F3
:1031400000BDFFFFAAAA0000F0B5DE4657464E4676
:103150004546E0B50C0083B0EFF3108A72B65A4AC8
:103160001368002BFCD0BFF35F8F1022914681447F
:103170004A46564B96009B689D59554B98469D4232
:1031800005D0A54216D0534FEB1B2F2B14D94F4B14
:103190009B689D51BFF35F8FBFF35F8F00224A4B47
:1031A0001A608AF3108803B03CBC90469946A24648
:1031B000AB46F0BD1D00EAE7012383409B465A461B
:1031C000454B1B681A4000925A46444B1A60BFF3A5
:1031D0005F8F06F025FF0190002803D0814501D0C4
:1031E00001F07AF901232A009A4393689C4208D19E
:1031F00060E04B005B189B00FB189968A14211D05E
:103200001A00062151560029F3DA009B002B05D045
:103210005A46334B1A60304B1A60B8E75A462F4B68
:103220001A60B4E706215956002922DB4A005018DB
:1032300080003C188046A0689860E079D87106202C
:1032400020569871A0797F2824D8A488F81A64059C
:10325000241544440019E0240005400D24022043B5
:10326000988052181F4B9200BF181A781970BA71C3
:10327000CBE70199002910D1FF3191711A49918052
:1032800018490A789A71194ADB1B5B415A43120D9F
:103290000A70BAE7BD200002E2E7154A1549D21AC2
:1032A000083A5002400D01439980134952080A43DD
:1032B000DA80AAE70621515613000029B6DA019AEE
:1032C000002AEAD14546DBE7240100D000ED00E00A
:1032D000CD010010803E012000E100E080E100E02F
:1032E00080E200E0A64A012000BDFFFFAAAA00007C
:1032F000BA3E012000F0FFFF00F8FFFFF8B50125FE
:103300000400054306F08CFE0300EFF3108672B64E
:1033100021490A68002AFCD0BFF35F8F1F4A2000B2
:103320001F49801A40414143090D1E489B00876890
:1033300049B2FF58AF421CD00623D3568B421CD053
:103340001223D3568B4222D01E23D3568B4220D039
:103350002A23D35603208B4210D0134B1A781970AE
:10336000A271BFF35F8F00220B4B1A6086F31088A7
:10337000F8BD82680D48D050EFE7002043001B18CD
:103380009B00D218FF239371094B9380E5E701203E
:10339000F4E70220F2E7C046240100D0803E01207D
:1033A000AAAA000000ED00E0A64A0120CD0100100D
:1033B00000BDFFFF054B064A1360064A13605360C9
:1033C0009360D36013615361936170478080808004
:1033D00000E400E004E400E0D02300B51B061B6815
:1033E0000100074883B0C018064B00220093052354
:1033F000FFF7CCFC002801DB1F23181A03B000BD27
:10340000A04A012038AA0020024B9C466144890052
:10341000016070474000003483680B4810B5844653
:1034200061446244090112019A18591854684B68A2
:1034300001209C4201D802D00020C0B210BD126809
:103440000B689A42F9D8F7E7FFFFFF0F0A4B19689C
:10345000EFF3108072B60A68002AFCD0BFF35F8FCA
:103460001B68BFF35F8F00221A6080F3108840BF93
:10347000002000217047C0466C4A0120F8B557462D
:103480004E464546DE46E0B5434D81468A466A686B
:10349000EFF3108872B61368002BFCD0BFF35F8F78
:1034A0002E68B47B002C3ED0670033683F19033F81
:1034B000DA195378B373002B00D1F37300239370A0
:1034C00053701370A968354A8C464946A2181201F8
:1034D00062441160514651603149D3609160326855
:1034E000D219937053701370737B9B46002B35D0A9
:1034F00022001900B068736898473268002820D00D
:103500005B4658465B005B44D719033BB870D11843
:10351000D35C002B00D07B705B460C7073735C45F2
:103520001DD0002626E06B68BFF35F8F1C6088F318
:103530001088012040423CBC90469946A246AB46CA
:10354000F8BD5B465B005B44033BD3189C70D1190C
:10355000D25D002A00D05A705B460B7074734A46E5
:103560005346287D00F078FC061EDAD0210028683A
:1035700000F0B8FEEB686A681B19013B1B78BFF3CB
:103580005F8F0021116088F310880020002ED2D1B7
:1035900018022043CFE7C046C83E0120FFFFFF0FBF
:1035A0000D320020F8B5574645464E46DE46E0B59A
:1035B00099460CAB19780DAB1B78050090469A46DE
:1035C0000768002912D1BE7B002E45D074003B68ED
:1035D000A419033C1B195A783100BA73002A00D190
:1035E000FA7300229A705A701A7003E00E004C00B1
:1035F0006418033C2C4B00229C46AB6861449C46FB
:103600004346090161440B604B464B600A9B8B604B
:103610000B9BCB603B681B199A705A701A707B7BAE
:103620009B46002B2CD032005946B8687B689847DF
:103630003A68002817D05B4658465B005B44141973
:10364000033BA070D118D35C002B00D063705B46A5
:103650000E707B73B34514D030003CBC9046994645
:10366000A246AB46F8BD5B465B005B44033BD31808
:103670009E701119125D002A00D05A705B460B70C3
:103680007E7342464B46287D00F0E6FB041E06D0C2
:103690005346002B03D13100286800F023FE0E9B17
:1036A000002BD9D01C70D7E7FFFFFF0FF0B5DE4627
:1036B0004E46574645460023E0B58DB00A936B4B06
:1036C0008200D3580B90994600239B464B460793A4
:1036D00000F038FB079C06000F006268EFF31085CE
:1036E00072B61368002BFCD022000794BFF35F8FE3
:1036F0002468637B9946002B67D092685C4B9046A8
:103700004B441B01984443461A685B68100019003B
:10371000801BB94100295FDD0B9800F09DFB002361
:103720000026984600279A46079C6368BFF35F8F80
:103730005A461A6085F310885346002B08D100289A
:10374000C6D10DB03CBC90469946A246AB46F0BDF2
:103750000A9B414618024B461843D04708900991EE
:103760006268EFF3108572B61368002BFCD00794E3
:10377000BFF35F8F0899099A002A48DB114303D0F1
:10378000079B1B69002B5DD1079B1B68DA7B002A16
:1037900007D051008A1819688C4649466244033A9A
:1037A00051704A46DA734B46079A013BD168CA5CAE
:1037B0000132CA545B46079A13615368BFF35F8FA7
:1037C0005A461A6085F3108882E70023002698463F
:1037D00000279A460020A7E7002901D100289BD1A5
:1037E0000021200000F0E0FC43461E685F689B68F3
:1037F000079A9A464346DB689846D3684B44013B98
:103800001B780A931B020343136100208CE7236992
:10381000002BB9D033003C005B1A94411A002300FE
:10382000A74219D89F421BD0594604910121039108
:103830004946029141460191514607980091FFF790
:10384000B1FEB7E700F07EFA089A099B06000F0068
:1038500092197B419942E5D901225242D317E3E7FD
:103860009642E1D901225242D317DDE7504A0120A6
:10387000FFFFFF0F10B5124C6368002B04D00A2124
:103880001048FFF7C1FD10BD23000F4A102120682A
:1038900000F0A8FB032000F049FA032000F04EFBE3
:1038A00003200A4900F092FAFFF7D4FA084B9C462D
:1038B000032360442375074B80006060DC60DEE713
:1038C000C83E01206C4A0120D93100206D3400200F
:1038D00040000034504A012000487047C83E012093
:1038E000F0B557464546DE464E46E0B585B00193F5
:1038F00010AB1B7800270393002380469A46009262
:1039000043465A68EFF3108972B61368002BFCD057
:10391000BFF35F8F43461D68AC7B002C4FD0660021
:103920002B683619033E9B195A78AA73002A00D1D6
:10393000EA7342469F705F701F709268524B9446C4
:103940000099019AE3181B01634419605A600E9AAA
:103950009A600F9ADA602B689B199F705F701F70D6
:103960006B7B9B46002B46D022001900A8686B6831
:1039700098472A68002831D05B4658465B005B4474
:103980009619033BB070D118D35C002B00D0737034
:103990005B460C706B735C452ED04346DB681B198D
:1039A000013B187843465B68BFF35F8F1F6089F364
:1039B00010885346002B2ED10002204307E05B689D
:1039C000BFF35F8F1C6089F310880120404205B06F
:1039D0003CBC90469946A246AB46F0BD5B465B00B8
:1039E0005B44033BD3189C709119925D002A00D070
:1039F0005A705B460B706C734346187D009A019BAE
:103A000000F02AFA82460028C7D0434621001868F1
:103A100000F068FCC1E7039B002B32D00E9B002016
:103A20000F999847030004000D000B4329D000298B
:103A30000DDA0098019902000B00121BAB4199426C
:103A400015D81AD000920193039B9A4658E700F0CC
:103A500079F902000B00A4185D41200029000090B4
:103A60000191AB4203D8EFD100998A42ECD90123EE
:103A70005B42DC1700930194E6E700999142E1D99B
:103A8000F5E70020A3E7C046FFFFFF0FF0B50400F5
:103A90000D0006267642F717C64636196F4100B567
:103AA0008F4213D810D000F04DF932003B00121AAB
:103AB0008B41002B14DC002B37D02900200000F0B4
:103AC00075F904BC9046F0BD8642ECD9002600276B
:103AD00000F038F932003B00121A8B41002BEADD6E
:103AE00030003900FFF7CAFC0028E6DB00239846C7
:103AF000BC460F4A0F4F7B6A9C4504D8B96A8E4278
:103B0000DBD99C45D9D11168EFF3108072B60B68F0
:103B1000002BFCD0BFF35F8F1368BFF35F8F41466C
:103B2000196080F3108820BFE5E7002AC5D0D7E7E9
:103B30006C4A01200040054070B504000D0000F003
:103B400001F902000B0020002900801859418B4226
:103B500005D802D0FFF79AFF70BD8242FAD9012042
:103B60004042C117F6E7C04670B5060000F0EAF81B
:103B7000FA2204000D00002330000021920003F01F
:103B80002FF9001969418D4205D802D0FFF77EFF59
:103B900070BD8442FAD901204042C117F6E7C04601
:103BA000F8B5CE46474680B506000C00FFF766FC28
:103BB00000280CDC2D4B0020596A8C4203D89B6AEC
:103BC0000130B34245D30CBC90469946F8BD20BFA6
:103BD000274D6A68EFF3108772B61368002BFCD08C
:103BE000BFF35F8F2B68C1B29C465B7B8B4235D0A5
:103BF000FF2303405A00914662461268994490465A
:103C00004A464244033A9278002A1DD0EA68000AE4
:103C100090464344013B1B78C0B2834221D06B687D
:103C2000BFF35F8F00221A6087F310880F4A0020CD
:103C3000536A9C42C7D8926A0130B242C3D2E41A96
:103C4000601E8441E0B2BEE72B699842E7D12A6149
:103C5000E5E7641A601E8441E0B2B4E7FF23034045
:103C6000D4E7604600F03EFBD9E7C046004005407F
:103C7000C83E0120F0B5D6464F464646C0B5EFF3E4
:103C800005833F22134018001038EFF3108C72B6F2
:103C9000204D2A68002AFCD0BFF35F8F012211005B
:103CA00081401D4C884661631C4917000E788A4686
:103CB0003100C1400F400A4215D019498200646AA0
:103CC00051588C4219D3174BD25843469E43534602
:103CD0001E70BFF35F8F00232B608CF31088002AC7
:103CE00006D0904704E0BFF35F8F2F608CF31088FD
:103CF0001CBC90469946A246F0BD0B4A9B009046DC
:103D000043441A681A60BFF35F8F00232B608CF363
:103D10001088EDE7280100D000400540A94A0120A5
:103D20007C4A01204C440120D03F054010B50100E1
:103D3000024A0348FFF706F810BDC04654AA002007
:103D4000A54A0120034B596A0A00986A596A8A42B7
:103D5000FAD170470040054070B504000D00124ACA
:103D6000536A1900966A536A8B42FAD130001900DF
:103D700024184D41AB4211D80ED02B000A494A6A93
:103D80009A42FCD307D1084A02E0516A994202D113
:103D9000916AA142F9D370BDA642EED90123012454
:103DA0006442E5175B42E9E700400540064A536A72
:103DB0009942FCD807D1044B02E05A6A914202D1E1
:103DC0009A6A8242F9D370470040054070B50400FA
:103DD0000D00EFF3108672B61A4A1368002BFCD060
:103DE000BFF35F8F002D1BD02000FFF79BF8164913
:103DF00081420AD02000FFF79DF801212000FFF743
:103E000045F80123A340114A1360114BA400E5506B
:103E1000BFF35F8F00220B4B1A6086F3108870BDD2
:103E20000B4BA200D5500122A2400A4920000B787A
:103E300093430B700449FFF787F900212000FFF737
:103E400025F8E5E7280100D0353A00203860054024
:103E50004C440120A94A0120F0B54F46D6464646BB
:103E6000C0B50700304C616A0D00A66A616AA942BC
:103E7000FAD18B4208D805D001201CBC9046994647
:103E8000A246F0BDB242F7D9EFF3108972B62748C7
:103E900001680029FCD0BFF35F8F01252449BD4094
:103EA0008C460978204C0E002E438846F1B28A4693
:103EB000614650460870391D1E48890065630A51E5
:103EC000B9000B50216A0020294219D0616A08000C
:103ED000A66A616A8142FAD18B4219D801D1B242F5
:103EE00016D8C2451DD0104B1F201D625D630123F3
:103EF0000740BB40104A1E381360634642461A70A2
:103F0000BFF35F8F0022094B1A6089F31088B4E772
:103F10000020BFF35F8F0022044B1A6089F31088E2
:103F2000ABE70120ECE7C04600400540280100D087
:103F3000A94A01207C4A012080E200E010B5EFF39D
:103F4000108472B60A490B68002BFCD0BFF35F8F58
:103F500001238340074A0848136202789A4302709B
:103F6000BFF35F8F00230B6084F3108810BDC04641
:103F7000280100D000400540A94A012070B5050085
:103F80000E001400002924D0002A24D080686B6819
:103F90009847296800280ED063001B197200033B64
:103FA0009219CB18033A9E7088188A5C002A14D1A3
:103FB000047030000EE073009B196200033B12197D
:103FC000CB18033A9C7088188A5C002A00D05A707B
:103FD0000670200070BD0800FCE75A7004703000C5
:103FE000F8E7C04630B583600023CCB24373013399
:103FF000047342608373C4730D000068012C06D9FA
:10400000421C0133DBB2137003329C42F9D1FF2111
:1040100029404B005918002340180338437030BD25
:10402000F8B5CE46474606000C0080B5002907D0FB
:104030004D0003686D18033D5A195778002F04D1BD
:1040400020000CBC90469946F8BD7900C919033987
:1040500088464344597889460021597051707368E5
:104060003A002100806898473368002814D04246FF
:104070009A18947059195B5D002B00D053700F7023
:10408000270049463000FFF7CBFF3900020030001F
:10409000FFF774FF0400D3E7424641465D19AF7055
:1040A0009A185B5C002B00D06B701470E9E7C04677
:1040B000F0B557464546DE464E46E0B50D006B006E
:1040C00001685B19DF1E0400C85D83B00192CA1944
:1040D00000284CD043001B18033BCB185E78B44635
:1040E000002E16D1019E002E3ED0E67B002E04D07D
:1040F00073009B19CB18033B5D70E57300282FD12B
:104100000023537003B03CBC90469946A246AB4690
:10411000F0BD72006244033A89184A789046002242
:104120004A7091465A70010032002000FFF726FFC6
:1041300043468246002B07D05B0021684344033B83
:10414000CB185A78002A16D1424651462000FFF774
:1041500015FF2168019BCA19002BC6D10028CFD0BA
:1041600043001B18033BCB1800219970C8E7019B43
:10417000002BBAD1C4E750008018033809184878DA
:10418000834648464870587041462000FFF7F6FEC7
:10419000594680462000FFF743FF414602002000B9
:1041A000FFF7ECFE8046CFE7F0B54E464546DE46CB
:1041B0005746E0B5467B040075000068AD19033D25
:1041C00083B00191415D421900294ED04B005B182C
:1041D000033BC3185F78BC46002F18D1019D002D0A
:1041E00040D0E57B002D04D06B005B19C318033B66
:1041F0005E70E673002931D1002330005370617383
:1042000003B03CBC90469946A246AB46F0BD7A004E
:104210006244033A801842789346002242709146E5
:104220005A7020003A00FFF7A9FE5B468046002B3B
:1042300007D05B0021685B44033BCB185A78002A07
:1042400017D15A4641462000FFF798FE019B010016
:1042500020684219002BC4D10029CDD04B005B1837
:10426000033BC31800209870C6E7019B002BB8D110
:10427000C2E750008018033809184878824648463B
:104280004870587059462000FFF778FE5346834621
:10429000002B07D05B0021685344033BCB185A78AE
:1042A000002A06D1594652462000FFF767FE834692
:1042B000C7E7500080180338091848464F784870FF
:1042C000587051462000FFF759FE39008146200002
:1042D000FFF7A6FE494602002000FFF74FFE824688
:1042E000E0E7C04670B5040000292CD0437B8B4228
:1042F0002ED0056848004018033828188278002A14
:1043000021D053009B18033BEA5CEE188A4202D18D
:104310001BE0002A08D053009B18033BEB185A7887
:104320008A42F6D142785A7000230122837043708A
:104330002000FFF7BDFE617B02002000FFF71EFE9C
:104340006073012000E0002070BD43783370EBE71C
:1043500001221900FFF7ACFE60730120F4E7C046AC
:1043600010B50400FEF776FD01002000FFF74CF8C1
:10437000FF232371BFF35F8F10BDC04610B504004B
:10438000FEF768FD01002000FFF73EF8FF23A38041
:10439000BFF35F8F10BDC04610B504000120FEF7CB
:1043A00065FD034BC3189B002360BFF35F8F10BDF7
:1043B000400000342C4B2D4A70B51A602C4A2D4B0E
:1043C0002D491A6010008B689843FBD12B4C2C4B65
:1043D0009C4209D2013B1D1BAD080135AD002D19D2
:1043E00008CC9847AC42FBD100F006F9254A214B96
:1043F0001A60214A9368DB018033FBD14022224BB3
:10440000224C234D9A675A671A67DA66AC4208D283
:1044100023682000002B21D00834FFF7AFFFAC4207
:10442000F6D31C4C1C4DA168C022280002F048FDA8
:10443000A560FEF701FDFEF7BDFFFFF71BFA174C65
:10444000174B9C4209D2013B1D1BAD080135AD0045
:104450002D1908CC9847A542FBD170BD0834FFF751
:104460007FFFAC42D4D3DCE700E00040BFCDFBFED1
:10447000FE7F3C0000F0004000C00040603F012093
:10448000703F0120FFFFFF0100F00140503F01207D
:10449000603F012000ED00E000000020703F01209F
:1044A000783F012000BEFDE70FB400B5084883B097
:1044B00002F062FE049B002B07D005A918000191B1
:1044C00001F0DCFD034802F057FE00BEFDE7C046E8
:1044D00078AA00206CA2002010B50148FFF7E4FF85
:1044E00088AA0020F0B54546DE4657464E46E0B560
:1044F00083B001920C9A050088469A4200D974E074
:104500001A0E93461E023000002359460C9A01F001
:104510006DFE374B6C009C466419A40064446368CC
:104520000700834200D260602B1FDBB29946012B4B
:1045300035D9C02380229B01234312011A602D4BE1
:10454000AD0059599A46002905D0586901F00CFE72
:1045500001300138FDD1019A236852015340E02215
:104560001A4080235B0123431A604A46012A2FD94F
:10457000802380229B01234312011A603000002314
:104580003A005946676001F031FE53465851012008
:1045900003B03CBC90469946A246AB46F0BD4346AC
:1045A000012BC6D1C02303229B0123431A60023A88
:1045B000A3681A42FCD0019A236852015A40E023B2
:1045C0001A4080235B0123431A600A4AAD009246D9
:1045D00042462168514003220A401A6001224346A4
:1045E0009A40A3681A42FCD0C2E70020D0E7C04638
:1045F000008000406445012030B50C2083B000F0FD
:10460000B3F9FEF711FC00280ED0944B944A1A60BF
:104610005A609A60DA601A615A619A61DA611A62C4
:10462000904A5A6203B030BD8F4CA06700F0F0F999
:1046300001228E4B1A60636C012BFCD103228C4B40
:104640001A60894A936B012BFCD101330121894AFD
:1046500089480093043300F033F90523874A009317
:104660000121874800F02CF9864B5A68FF2A02D8AE
:10467000802252005A608022784C7D4B21691201C1
:10468000804D1A60002905D0606901F06DFD013090
:104690000138FDD1E0217B4B02201A6811408022B5
:1046A00052012A43116019684840032101401160FA
:1046B00004219A681142FCD08022802192012A4371
:1046C00009011160802252005A606F4B23616F4BC9
:1046D0005968FF2900D85A6003226C48634B0121B6
:1046E0001A60020093681942FCD0E02513681D404F
:1046F00080235B0103431D6012684A40032111407F
:1047000019600221614A93681942FCD080238021FC
:104710009B0103430901196080215D4B49005160F1
:1047200063615C4B5A68FF2A00D8596080225A4B5B
:10473000E1691201574D1A60002905D0606901F046
:1047400013FD01300138FDD1E02252490B681A40B7
:1047500080235B012B431A60802380229B012B4323
:1047600012011A6080223E4B52004A60E3614B4BBB
:104770005968FF2900D85A608022494B216A1201EA
:10478000464D1A60002905D0606901F0EDFC01304A
:104790000138FDD1E02241490B681A4080235B01BA
:1047A0002B431A60802380229B012B4312011A6045
:1047B000802380225B004B60294BD2022362394B5D
:1047C0005968914200D25A608022374B616A1201C7
:1047D000344D1A60002905D0606901F0C5FC013034
:1047E0000138FDD1E0222F490B681A4080235B017C
:1047F0002B431A60802380229B012B4312011A60F5
:104800008023DB024B60174B6362284B5A68FF2AF8
:1048100002D8802252005A608022254BA1691201E1
:10482000224D1A60002905D0606901F09DFC01301D
:104830000138FDD1E0221D490B681A4080235B013D
:104840002B431A60802380229B012B4312011A60A4
:1048500080235B004B600E4BA361E3E664450120BF
:10486000006CDC021BB70000008000403CB0004040
:1048700030B00040002F685900800240008C86470D
:1048800000C0024030800040001BB7003C80004068
:10489000405973075480004054B00040608000408D
:1048A00060B000406C8000406CB000404880004028
:1048B00048B00040014B8000C0587047644501205B
:1048C000F8B504000C2017001D000E0001F04CFC90
:1048D0004101091A8B01591AC900091889013800C8
:1048E00001F042FC069A2B04120313432268002AAB
:1048F00021DB194AA21851424A41802149018C46C4
:1049000052420A40154962440A6015490A60154935
:1049100017008D68AF43FBD1C021221D89011143CF
:1049200021222660A0600A602268002AFCDAE36087
:1049300008230B60F8BD3F2221680A40B242D8D15B
:10494000A2681205120D8242D3D1EE21E268C9029B
:104950000A409A42CDD1EDE70040FDBF00E00040A3
:1049600000F0004000C000408023024A9B00034347
:10497000D36270470080054010B5140080221B4BA5
:10498000D2051A6000281AD00123194A1843194B7E
:10499000DA61194A42401A62596298628022134BC6
:1049A000D2051A601549164A1160E022D2041A6035
:1049B000002C07D18022134B12061A6010BD0D4B3C
:1049C000D861EBE780236201121B920012191201D9
:1049D0005B049A4200D30C4A0C4B1A60054B5A6098
:1049E0008022084BD2051A60E8E7C04600B00540B7
:1049F000D3C007B0008005402D3FF84FFCFF0100F9
:104A00000820014000A00540FFFFFF00304A0120C0
:104A1000AA23064A1B0113602F230549D360054BC7
:104A200019605368002BFCDA7047C0460040024012
:104A300000B0FA00006002407047C046F8B5574623
:104A40004E46DE464546E0B51F000A9B05009B46E4
:104A50000D9B0E00914692469B0718D10B9B0C9A1A
:104A6000934214D213000B9AB8469B1A4B444C46FF
:104A70000F0006001D0022004346013439002020AB
:104A8000B047AC42F7D1AA4635003E0047460B9BE3
:104A9000002B38D09A441C00D04653461A1B5B4664
:104AA000013C185D31003B00A847002CF5D10D9B5F
:104AB0009B0721D543464A469C1A0C9BA3421BD90F
:104AC0003A009A464F469146E2194B463100202063
:104AD0000134A8475445F7D343460C99DB1B0133F7
:104AE000B9460022994203D343464A1E4A44D21A89
:104AF000434690460133984440463CBC9046994614
:104B0000A246AB46F8BDD046D1E7C046F0B54F4609
:104B10004646D646C0B584B098460EAB1B78129F69
:104B2000994694460D9C109B119EBA0725D4002EE1
:104B300069D19C4200D3C2E001223A4092461F2C28
:104B400000D9BBE00C9A551E302201E0202C03D086
:104B500001342A55A342F9D85246002A0DD0B44256
:104B60000BD21F2C62D80C9A551E302201E0202C4B
:104B70005CD001342A55B442F9D1FA0635D57A050C
:104B80005DD4002C57D10F9B102B00D17CE00F9BE4
:104B9000022B00D18DE030230C9A012413704B4678
:104BA000002B27D02D230C9A135501340C9B624601
:104BB00000930397434602960194FFF73FFF04B02A
:104BC0001CBC90469946A246F0BDBB0663D4202C7F
:104BD000ECD00C9B1A19013478231370202CE5D0EB
:104BE00030220C9B1B191A700134202CDED04B464E
:104BF000002BD7D17B0735D43B07D7D520230C9A80
:104C000013550134D2E7012215003D40AA463A422D
:104C100020D04A46002A2AD10C323A4227D19C425F
:104C20009DD21F2C00D88DE7202E19D92024FA06FA
:104C3000BCD57A0503D4A3421BD0A64219D00F9B42
:104C4000102BC2D0022BC9D1202CAFD00C9B1B192A
:104C5000013440E09C4200D38FE71F2C00D871E75D
:104C600020248AE72B230C9A135501349EE7013E3A
:104C7000D5E7631E012C00D185E70F9A102A20D0BA
:104C8000022A25D01C00ABE7BB060DD478230C9A72
:104C900001241370A4E7202C00D187E758220C9B35
:104CA0001B191A70013499E758230C9A01241370C8
:104CB00096E70C9A60330124137091E720240026B4
:104CC0005BE7023CBA06E9D40C9A12191C0083E790
:104CD0000C9A9246534462221A707FE710B500285E
:104CE00000D110BD02F0F6F9FBE7C0460B0010B58D
:104CF000002802D049681B68984710BDF0B5DE4611
:104D0000574645464E46E0B59BB09B46249B0A90CD
:104D10009846259B0B910C924046424619009A46B4
:104D200001F0F3FC002800D0E8E0012240465146A3
:104D30007F4B524201F0E4FC002800D0DEE001226B
:104D4000404651467B4B524201F0C4FC002800D043
:104D5000D4E0002200234046514601F0BBFC00286D
:104D600000D0CAE15346C14609938023289ADB004C
:104D70001A400E92289A1A4201D1062326934C46D5
:104D8000099B234300D0D9E0289B002600271B0560
:104D900000D4AEE100230D93269B19000D9B994290
:104DA00000DCB0E1C81A431E26938023289ADB005A
:104DB0001A430023002528920D93279B0024AB4221
:104DC00000D95C1B0223289A1A400E92289A13429B
:104DD00003D06B426B415B421C400D9B002B07D004
:104DE0004846099932003B0001F013FC81460991C5
:104DF000002200234046514601F06CFC002805D0FB
:104E0000802000068446099961440991289A4A4BFA
:104E10000A9E13404A460493269B0B990293099BD2
:104E200003940092019330005B460C9A884600F090
:104E3000A1F90400002D72D0289B220098061F23A0
:104E4000C017984341465B466530B0470D9B671CD1
:104E5000DA179C18DB0F98466B1E994600255440C4
:104E600001E0202D13D00AAA94461F23200063449A
:104E70000A2101355E1901F077F9303131702000D7
:104E80000A2101F071F926000400092EE9D8052352
:104E900006934B460593002304930A33039343463A
:104EA0003A000A9E0B9F029312AB009339005B46B7
:104EB00030000195FFF72AFE0E9B0400002B2ED038
:104EC0000C9B279AC51AAA4229D93C0081469846CC
:104ED0001700434621005A1920205B460135B04790
:104EE000AF42F6D84C460C992798631A013300223A
:104EF000984200D30AE10134141910E0289B42467D
:104F00000493279B0B990393269B0A98029353467D
:104F1000009201935B460C9A00F02CF904002000EB
:104F20001BB03CBC90469946A246AB46F0BDC0467D
:104F3000FFFFEF7FFFFFEFFFFFF7FFFF764B099DBE
:104F40009C466800400D604401F0F2FB734A744BCC
:104F500001F07DFB734A744B01F052FB2B03734A43
:104F60001B0B1A4306000F00714B1100484600222C
:104F7000099501F03CFB6F4A6F4B01F068FB0200A2
:104F80000B003000390001F03BFB01F0E9FB0D9014
:104F900001F0CEFB694A6A4B04000D0001F057FB9B
:104FA0000022684B01F02CFB01F0DAFB664A060098
:104FB000664B2000290001F04AFB040030000D0080
:104FC0000F9601F0B5FB624A624B01F040FB020014
:104FD0000B002000290001F00AFB02000B00060074
:104FE0000F0001F034FB320004000D003B003000E4
:104FF000390001F005FB002210901191564B200062
:10500000290001F006FB0022544B01F0F9FA0200DE
:105010000B002000290001F0FCFA0022504B01F0A7
:10502000EFFA02000B002000290001F0F2FA0D0057
:10503000802132003B000400C905002001F0D7FAAE
:1050400002000B002000290001F0DAFA02000B0038
:105050001098119901F0DDFA0022344B01F0D0FADA
:10506000404A0F9B9446634400221B0501F0EFFA6F
:1050700006000F0002000B004846099901F02AFBC8
:1050800000280AD00D9B3000013B39000D9300220F
:10509000324B01F0BEFA06000F00C6250D99330011
:1050A00063318D42AD4128996D420435090500D424
:1050B00083E63B4300D16FE6099C484621002A4A1B
:1050C0002A4B01F015FB002808D000224846210099
:1050D000274B01F0FFFA002800D05DE6269B002B4D
:1050E00000D16AE60E9B5A1E9341269AD31A269344
:1050F00063E6002304250D935FE680231B065344DB
:10510000C146099331E6002326934EE60A00844601
:10511000013A6244121BEEE601FCFFFFFB799F504F
:105120001344D33FB3C8608B288AC63F0000F03FCA
:105130000000F83F61436F63A787D23F71A37909ED
:105140004F930A400000E03F1655B5BBB16B0240DB
:10515000EF39FAFE422EE63F00002C4000002440CA
:1051600000001840FF0300002D431CEBE2361A3FFD
:1051700080842E41F0B54E46DE4657464546E0B5A2
:1051800097B09946209E219F229B8346984607917F
:105190000C923B0032003000390001F0B6FA0028D2
:1051A00000D0C1E1012230003900CA4B524201F067
:1051B00091FA002800D0E0E0012230003900C64B0F
:1051C000524201F09DFA002800D0B6E000223000E3
:1051D0003900C24B01F094FA002800D098E0002278
:1051E00030003900BE4B01F075FA002800D08FE086
:1051F000002200233000390001F06CFA002800D0B2
:10520000B0E000230D93249B5B0501D40623984650
:1052100008AB9C461722002430234146624404E038
:10522000013413550139202C01D00929F8D88846BA
:105230003000390001F094FA4346DA00A94B05002A
:105240009B181A685B680892099301F071FA0200D2
:105250000B003000390001F0CAF9089A099B01F0EF
:10526000F6F90A900B9101F09FFA824601F05CFA80
:1052700002000B000A980B9901F0B9F900229A4B31
:105280000A900B9101F03CFA002800D1C0E0012304
:105290009C46E244504601F047FA02000B00089891
:1052A000099901F01DFA002802D000239A46013521
:1052B0004346002B69D008AB17269C4608956644E8
:1052C000554614E001235B4243440A2128009A46D4
:1052D00000F04AFF013430313719397028000A21B3
:1052E00000F042FF092D00D8D5E0D0460500202C63
:1052F000E8D10323249A1340012B00D100E10EAB27
:105300009846249B01940393239B029343461EE0FB
:10531000249B58460493239B00960197039343468E
:105320000C9A029307994B46FFF7E8FC17B03CBC78
:1053300090469946A246AB46F0BD249B5B070ED42F
:1053400003226A4B249901920391239902910093BD
:1053500058464B460C9A0799FFF770FBE6E7042284
:10536000634BEFE73B0032000020002101F03FF9E2
:10537000012306000F000D9345E7249B0393239B15
:105380000293042301935B4BE1E7280001F0D0F97D
:1053900002000B003000390001F029F9524B0022C5
:1053A00006000F0001F096F90EAB984600280AD1CE
:1053B0000022300039004C4B01F0A2F9002802D144
:1053C000EB0700D50135202C32D008AA94461723CC
:1053D000280063440A2101341E1900F09DFE30317B
:1053E000280031700A2100F097FE051EEBD103233F
:1053F000249A1340012B00D191E01F2C00D980E7A3
:105400000D9B002B3BD02D2342461355013478E7EA
:1054100000220A980B99344B01F05CF9002800D067
:1054200046E75346002B67D101239C46E2443FE701
:105430000323249A1340012B00D062E7239B002B07
:1054400000D15EE70D9B002B03D1249A0C3313424D
:1054500002D0239B013B2393239B9C42CDD208ABDC
:105460009C461722302362441F2C06D8239901340E
:1054700013558C42C1D0202CF8D1202441E7249B25
:105480005B0721D4249B1B0700D43AE72023424624
:105490001355013435E75746089D202C37D022009C
:1054A00030214046002F08D00132B154202A43D089
:1054B000D3431B191B18002BF6D10EAB98462E2395
:1054C0004146541C8B547EE72B234246135501342E
:1054D00017E7C046FFFFEFFFFFFFEF7F65CDCD4130
:1054E00065CDCDC190AC00200000E03F94AA002023
:1054F00098AA0020A4AA0020DB0700D4D8E693E7EE
:10550000239B002B00D1FAE60EAB98469AE70323C3
:10551000249A1340012B00D0F1E60EAB9846239B52
:10552000002B00D169E78DE7249B0393239B029313
:1055300003230193064B0AE70323249A20241340F4
:10554000012B00D0DBE6239B2024002BDCD1D6E608
:10555000A0AA0020F0B5DE464E4657464546E0B5C7
:105560009FB01C00289B93460993CF4ACF4B894696
:1055700008901A60002900D116E2002320789A468C
:10558000002800D118E226001D004C460AE02A003F
:105590006F1C5B46089D2100A8473D00013630780E
:1055A00000287AD02528F2D110239A46083B994644
:1055B000043B9846023B00219C46721C1078160062
:1055C0000300203BDBB2102B03D8B94F9B00FB58E4
:1055D0009F460300303B092B3CD900230A932A281D
:1055E00000D171E0002398462E2847D00300683B85
:1055F000DBB2122B1FD8AF4A9B00D3589F46012322
:1056000001321943DAE7634601321943D6E74346CC
:1056100001321943D2E7534601321943CEE74B46D4
:1056200001321943CAE770786C2800D1BFE28023A9
:105630005B00194301360300253BDBB2532BA6D890
:105640009D4A9B00D3589F4680235B007078194386
:105650000136F0E700270300B800C019013640000A
:10566000C018337830381A00303A0700092AF3D9C5
:105670000A901800002398462E28B7D1802370780E
:10568000DB0019430300303B721C092B00D895E165
:105690002A2800D1A6E11600A8E7A146AA462C00B8
:1056A000D34503D801235B425B449A465B4652468E
:1056B00049460020089DA84720001FB03CBC9046EA
:1056C0009946A246AB46F0BD099B40CB0A96002EF8
:1056D00003DB50780993561C84E728380143704255
:1056E0000A9009935078561C7CE7782800D1D4E1C1
:1056F000582800D168E26F2800D152E3622800D117
:10570000D8E110230A009A430B92692801D000F0D7
:10571000A2FC0A230C934B0500D4D5E101230B9A7C
:105720009A430B92692800D1CEE1642800D1CBE1E5
:105730000B9A802311009B0019408A461A4200D020
:1057400032E3802311005B00194089461A4201D0E0
:1057500000F002FC13005B0600D510E30B9B1B0658
:1057600001D400F06EFC099B04CB1204120C92468B
:1057700009935346002B00D064E30B9A10331100B9
:1057800099430B91520500D45CE3002399460B9B8F
:1057900006930A9B0593434604930C9B03930023B3
:1057A000DEE27078682800D107E2802301361943D1
:1057B00041E780239B007078194301363BE7462878
:1057C00000D174E10722099B0491073393430A9A9D
:1057D00019000392424602920CC908980092019364
:1057E00009912A005B462100FFF7C4FC0136050041
:1057F000D5E6099B1A0008CA9146002B00D105E1A5
:10580000212211438A460EA884461F21614409952E
:1058100000220F27A4460D0002E0202A0CD00B0026
:105820003C001C4020003730092C00D807380132DA
:10583000A85419090F2BF0D86446099DF0E08B0796
:1058400000D4D1E1099B2A0099466B1C98464B462F
:1058500001CB21009946089F5B46C0B2B8470A9B1E
:105860009C466544012B00D890E2B2465E4647460E
:10587000A846089D3A003300013721002020A847A0
:105880004745F7D1B3464B4656463D00099301368E
:1058900085E62A006F1C5B46089D21002520A8474D
:1058A00001363D007BE6C046155300202C4A0120FE
:1058B000ACAA0020F0AA00203CAB0020099B04CB3E
:1058C000994643460992002B00D097E013789C46F6
:1058D000002B00D1B3E302235B425A1C099B924682
:1058E00018000A9F0B92504402E0834200D169E104
:1058F0005A780133002AF8D1099A0A979B1A0B9318
:1059000080230A00DB001A400C92194204D00B9B42
:10591000434501D943460B9302231A000A400D92D6
:105920000B4200D184E16046002823D00C9B002B61
:1059300000D124E1A844C246099B57465B1B984608
:10594000089BB2462A0026005C469B4609E02300DD
:105950003100551CD8474346585D002800D13FE12F
:105960002A009742F3D1A3463D00340056460D9BD2
:10597000002B69D00B9B0A99A846994264D98C46A2
:105980006544ED1A089B47469A46B04626005C4699
:105990003A002300013731002020D047AF42F7D131
:1059A000A346340046464FE0D24B207808930023AC
:1059B0009A46002800D0E6E5002471E6434606003A
:1059C0000A9F9800C0180132400080191678030021
:1059D00030003038303B0928F3D9300098461600A3
:1059E0000A9703E6099B023604CB9046D243404611
:1059F000D2171040804609933078F7E513789C461B
:105A0000002B00D11AE34346013B66E71022080051
:105A100090431132104382460022490500D4F2E639
:105A20005346069308230593434604931023039398
:105A30000023029316AB019200932A005B462100DB
:105A40000898FFF763F805004B4601360993A6E571
:105A5000202302009A43472A04D180231B011943C3
:105A600002239843452801D1202319430722099B8B
:105A70000491073393430A9A190003924246029213
:105A80000CC908980092019309912A005B462100F5
:105A9000FFF734F90136050081E510230C930C2340
:105AA0000A009A430B924B0500D43BE636E62023CE
:105AB000194387E602230C930B910B996428EED1CE
:105AC0000B9B5B0500D529E60B9A802311009B00F8
:105AD00019408A461A4200D0CEE0802311005B00B4
